:020000040800F2
:10000000A02800207D020008CD190008C9190008A9
:10001000CB190008F9040008F125000800000000D1
:10002000000000000000000000000000C101000806
:10003000A9050008000000001502000815250008A9
:10004000970200089702000897020008970200082C
:10005000970200089702000897020008970200081C
:10006000970200089702000897020008970200080C
:1000700097020008970200089702000897020008FC
:1000800097020008970200089702000897020008EC
:1000900097020008970200089702000897020008DC
:1000A00097020008970200089702000897020008CC
:1000B00097020008ED250008EF25000897020008C8
:1000C00097020008970200089702000897020008AC
:1000D000970200089702000897020008970200089C
:1000E000970200089702000897020008970200088C
:1000F000970200089702000897020008970200087C
:1001000097020008111A00089702000897020008D9
:10011000970200089702000897020008970200085B
:10012000970200089702000897020008FB040008E5
:10013000970200089702000897020008970200083B
:10014000970200089702000897020008970200082B
:1001500097020008FF0400089702000897020008B1
:10016000970200089702000897020008970200080B
:10017000970200089702000897020008000000009C
:1001800097020008970200089702000897020008EB
:1001900097020008970200089702000897020008DB
:1001A000000000000000000097020008DFF80CD0FB
:1001B00000F0A4F800480047E9430008A028002008
:1001C0002B4B19680868B0E8F04F80F30988BFF33B
:1001D0006F8F4FF0000080F311887047000000001F
:1001E00006480068006880F3088862B661B6BFF30D
:1001F0004F8FBFF36F8F00DF00BF00BF08ED00E03F
:10020000DFF80C00016841F470010160704700BF25
:1002100088ED00E0EFF30980BFF36F8F144B1A688D
:100220001EF0100F08BF20ED108A20E9F04F10607B
:1002300008B44FF0500080F31188BFF34F8FBFF325
:100240006F8F05F003FB4FF0000080F3118808BCAE
:1002500019680868B0E8F04F1EF0100F08BFB0EC46
:10026000108A80F30988BFF36F8F704700BF00BF0B
:100270002C000020EFF305807047000006488047FF
:1002800006480047FEE7FEE7FEE7FEE7FEE7FEE77B
:10029000FEE7FEE7FEE7FEE799250008AD0100084E
:1002A00040EA01039B0703D009E008C9121F08C0F8
:1002B000042AFAD203E011F8013B00F8013B521E78
:1002C000F9D27047D2B201E000F8012B491EFBD2EF
:1002D00070470022F6E710B513460A460446194651
:1002E000FFF7F0FF204610BD034611F8012B00F880
:1002F000012B002AF9D1184670470000064C074D23
:1003000006E0E06840F0010394E8070098471034E5
:10031000AC42F6D3FFF74EFF0C6A00082C6A0008C7
:1003200070B50400124886B001D0012C07D10168D5
:1003300041F010010160006800F0100005900D4EC2
:100340000D4D694636F8140000900120019002908E
:100350000220039055F8240000F086FB36F81410B4
:1003600055F82400002200F06EFC06B070BD0000BD
:10037000303802405C640008100000200449054A3F
:1003800031F8101052F82000012200F05CBC00008F
:100390005C640008100000200449054A31F8101080
:1003A00052F82000002200F04EBC00005C640008FF
:1003B000100000200349044A31F8101052F82000C0
:1003C00000F03DBC5C640008100000200148806D16
:1003D00000F0C6B9600100200148C06D00F0C0B94E
:1003E000600100200146014800F0B6BF6001002016
:1003F000014800F08ABF000060010020014801F0C0
:1004000005B900006001002010B51449002412480D
:10041000C1E900048C60CC6012200C61C1E9054088
:1004200004F0A4FD00F01CF8012801D0012010BD4B
:1004300001F01AFD09490948603101F025F908B1B8
:10044000012406E04FF40061044801F0FDF90028A2
:10045000F6D1204610BD0000002C014060010020B4
:1004600008B501208DF800000102074800F0E2FB0A
:10047000064918B100208DF8000000E00120087046
:100480009DF8000008BD0000000402401800002094
:100490007CB50024DDE90615CDE9001501460748C5
:1004A00001F044F908B1012405E00549034800F0D2
:1004B000C3FE0028F7D120467CBD0000600100206B
:1004C00000E1F5057CB50024DDE90615CDE9001550
:1004D0000146074801F0E8F908B1012405E00549A3
:1004E000034800F0D8FE0028F7D120467CBD00006C
:1004F0006001002000E1F505FEE7FFF767BFFFF7A9
:100500006BBF000001681823CAB2103AB2FBF3F2C5
:10051000054B6FF30901032A9B5CC36500D9091DD4
:1005200081650846704700004464000810B5014624
:1005300000208B698A6A4FF0C07453B1B3F5005F35
:1005400015D072B1012A0CD0022A0AD0032A09D18F
:1005500004E01AB1012A06D0022A03D1C96AC901EE
:1005600000D5012010BDC96AA142FAD010BD002AF1
:10057000F7D0012AF2D0022AF3D0032AF3D010BD1B
:1005800030B50468256825F480252560046863601B
:100590008368402B036803D099600068C26030BD57
:1005A0009A600068C16030BD70470022AFF30080E0
:1005B00030B50E4B054601205C7A012C15D8587ACF
:1005C00000241C54587A03EB800045605D7A03F1E7
:1005D00008002A54587A421C5A72303008703A2067
:1005E00048702F208870CC70002030BD7012002021
:1005F0000C4C4FF47A750120FFF7DCFE284603F01F
:1006000090FF62681621521C626007A0521E03F020
:10061000C7FB626808B10AA100E011A1002003F045
:10062000E1FEE8E70000002053544D3332463478B1
:10063000785F46617446735F52544F530D0A000051
:100640001B5B313B33316D57726974652046696CB1
:1006500065204572726F72202D2025642E0A0000DD
:100660001B5B313B33336D57726974652046696C8F
:1006700065204F4B202D2025642E0A002DE9F041E6
:100680000446876D00F0E4FA064694F8350000252C
:10069000022806D08020606584F834500120BDE82F
:1006A000F0812068016821F016010160206841692D
:1006B00021F080014161206C08B9A06C20B1206854
:1006C000016821F0080101602068016821F0010142
:1006D00001600BE000F0BCFA801B052806D9202041
:1006E000606504F8345F03206070D8E72068006814
:1006F000C007EFD194F85C103F208840B86004F840
:10070000345F012060700020C9E770B5040025D077
:1007100094F83500022820D02068016821F00101FA
:1007200001602068002505602068456020688560BC
:100730002068C56020680561216821204861204645
:10074000FFF7E0FE94F85C203F21914081606565F1
:1007500084F8355084F83450002070BD012070BDFD
:100760002DE9F84304464FF00008CDF800806448B6
:100770004FF41651A56D0068B0FBF1F72E6894F8A0
:100780005C10082000FA01F131420FD021680A689C
:1007900052070BD50A6822F004020A6094F85C1034
:1007A0008840A860606D40F00100606594F85C10BE
:1007B00054488840304208D021684969090604D568
:1007C000A860606D40F0020060654E4894F85C10CF
:1007D000C01C8840304208D021680968890704D5C8
:1007E000A860606D40F00400606594F85C10102013
:1007F0008840304218D021680968090714D5A860DC
:1008000020680168490304D50068000308D5A16C7D
:1008100007E00168C90503D4016821F008010160FF
:10082000216C09B12046884794F85C10202088404C
:1008300030424FF0010631D021680968C9062DD534
:10084000A86094F8350005282068016806D049039F
:1008500047D5006800031DD4616C1CE021F016012F
:1008600001602068416921F080014161206C08B974
:10087000A06C20B12068016821F00801016094F8A3
:100880005C103F208840A86084F8348084F835608C
:10089000216D1FE0E16B09B120468847606D00289B
:1008A0002BD0606DC00714D0052084F83500206877
:1008B000016821F0010101600098401C0090B842DD
:1008C00003D820680068C007F6D184F8348084F823
:1008D0003560E16C002910D001B02046BDE8F0433E
:1008E00008470168C905D5D4016821F010010160ED
:1008F00084F8348084F83560CCE7BDE8F8830000E4
:1009000098000020010080002DE9F041044600F02D
:100910009FF906465CB1002584F83450022084F823
:1009200035002068016821F0010101600DE001201F
:10093000BDE8F08100F08CF9801B052805D9202046
:100940006065032084F83500F2E720680068C0077E
:10095000F0D1226811681F480140D4E9010318430F
:10096000D4E903363343184363691843A369184332
:10097000E3691843236A18430843616A042903D1D1
:10098000D4E90B1319430843106020684069666A74
:1009900020F0070130460E43012704280AD1A06A3F
:1009A00006432046FFF7C2FD20B14020606584F871
:1009B0003570BCE7206846612046FFF7A3FD94F838
:1009C0005C203F2191408160656584F8357000208E
:1009D000AEE700003F8010F02DE9F0410446866D3F
:1009E00090F83400002501280DD0012084F834004F
:1009F00094F835700020012F07D084F834000225C8
:100A00002846BDE8F0810220FBE7022784F8357014
:100A100060652046FFF7B4FD94F85C103F208840E5
:100A2000B0602068016841F01601016020684169EA
:100A300041F080014161206C20B12068016841F0E3
:100A4000080101602068016841F001010160D7E7F9
:100A500031B500F0FDF8044600F0FAF80099001BEB
:100A60008842F9D338BD00002DE9F84FDFF890B186
:100A700000224FF001084FF0030A4FF00F090BF16D
:100A8000040E00BF0B6808FA02F42340A3426ED1A3
:100A90004D68022D01D0122D0ED1D50800EB850C2A
:100AA000DCF820505607F70E09FA07F6B5430E6931
:100AB000BE402E43CCF82060066855000F790AFA34
:100AC00005FC07F0030726EA0C06AF403743076032
:100AD0004E68012E05D0022E03D0112E01D0122E09
:100AE0000ED18768CE6827EA0C07AE403E43866089
:100AF0004668A6430C79C4F3001494403443446020
:100B0000C4688E6824EA0C04AE402643C6604C6874
:100B1000E4006FD53B4C256845F48045256024688A
:100B200022F0030504F480440094374C2E19D6F8C3
:100B3000084895072F0F09FA07F5AC43334DA84233
:100B400001D100252EE0324DA84201D1012529E036
:100B5000304DA84201D1022524E02F4DA84201D1F9
:100B600003251FE02D4DA84202D104251AE041E0E3
:100B70002B4DA84201D1052514E02A4DA84201D1F0
:100B800006250FE0284DA84201D107250AE0274D90
:100B9000A84201D1082505E0254DA84201D109252B
:100BA00000E00A25BD402543C6F80858DBF80040A0
:100BB0005D464E689C43F60300D51C432C60DEF86E
:100BC000004075464E689C43B60300D51C432C601C
:100BD0000B4D08352C684E689C43F60200D51C432B
:100BE0002C60074D0C352C684E689C43B60200D52E
:100BF0001C432C60521C102AFFF444AFBDE8F88F50
:100C0000003C0140443802400030014000000240F6
:100C10000004024000080240000C024000100240A4
:100C20000014024000180240001C02400020024054
:100C3000002402400069084000D00120704742694A
:100C40004A40426170470AB1816170470904FBE77D
:100C500001480068704700000C000020024801684D
:100C6000491C0160704700000C0000200B4810B5C3
:100C7000016841F400710160016841F48061016024
:100C8000016841F480710160032000F04BF80F20EF
:100C900000F006F800F018F8002010BD003C0240FB
:100CA00010B5044607484FF47A710068B0FBF1F0C4
:100CB00000F076FE00222146501E00F013F80020BE
:100CC00010BD0000980000207047002809DB00F0EC
:100CD0001F02012191404009800000F1E020C0F88E
:100CE00000117047F0B40E4B1B680C46C3F302238F
:100CF000C3F10705042D00D90425191D072901D2C8
:100D0000002300E0DB1E012606FA05F1491E214002
:100D100099409E40761E16403143F0BC01F0FABD6A
:100D20000CED00E0064900F0070208684FF6FF03EB
:100D3000184040EA0220034A104308607047000050
:100D40000CED00E00000FA052DE9F047DFF86491B2
:100D500005460F46D9F8000000F00F01F8B28046B2
:100D6000B94208D2014689F80010D9F8000000F015
:100D70000F00B84274D128784F4C800705D5206801
:100D8000A96820F0F000084320602878C00759D0F7
:100D900049496868083901281AD002281BD003285D
:100DA00019D00968890700295ADA216821F003015E
:100DB00001432160FFF74CFF6968064641F2883025
:100DC000012911D002291DD00329824627D035E000
:100DD00009688903E7E709688901E4E7FFF738FF55
:100DE000811B514501D926E082462068C0F381006D
:100DF0000128F3D126E000BFFFF72AFF811B5145F0
:100E000001D918E082462068C0F381000228F3D19E
:100E100018E000BFFFF71CFF811B51450BD820686D
:100E2000C0F381000328F5D10CE000BFFFF710FFED
:100E3000811B514502D90320BDE8F087206810F0DE
:100E40000C0FF3D1D9F80010484601F00F01B94258
:100E500008D980F80080006800F00F00B84201D087
:100E60000120E9E72878400705D52068E96820F4E3
:100E7000E050084320602878000706D520682969DB
:100E800020F4604040EAC100206000F01BF82168B7
:100E9000F02292FAA2F201F0F001B2FA82F2D1400D
:100EA000064A515CC840064908600F20FFF7F8FE6B
:100EB0000020C1E7003C0240083802404C640008B2
:100EC00098000020154810B5006810F00C01144877
:100ED00023D0042921D008291FD11049091F0A68ED
:100EE00002F03F030A68B0FBF3F00B6847F6C072EC
:100EF000134092FAA2F2B2FA82F2D3400968584340
:100F00004FF4403292FAA2F201F44031B2FA82F286
:100F1000D140491C4900B0FBF1F010BD0838024037
:100F20000024F4002DE9F84F0546DFF8FC92007824
:100F3000A9F1040BC007ABF1040449D0D9F80010A3
:100F40004846C1F38101012908D00068C0F381003F
:100F500002280AD1DBF80000400206D52068800391
:100F600036D5686800286ED032E06868B0F5803FFA
:100F700010D0B0F5A02F206810D020F48030206071
:100F8000206820F4802020606868A0B1FFF760FE30
:100F900006460CE0206840F48030F4E740F48020FE
:100FA0002060F7E7FFF754FE801B642871D82068A3
:100FB0008003F7D50CE0FFF74BFE064605E000BFC7
:100FC000FFF746FE801B6428F0D820688003F7D422
:100FD0002878964F80074FF0010A4FF0000841D55E
:100FE000D9F80010484611F00C0F08D00068C0F383
:100FF000810002280AD1DBF80000400206D42068F4
:10100000800713D5E86801281DD10FE0E868D8B142
:10101000C7F800A0FFF71CFE064604E0FFF718FE25
:10102000801B0228C2D820688007F7D52068F822E4
:1010300092FAA2F22969B2FA82F220F0F800914005
:10104000084320600EE0ECE0C7F80080FFF700FEE8
:10105000064604E0FFF7FCFD801B022819D8206833
:101060008007F7D42878000724D57148696989B1C9
:10107000C0F800A0FFF7ECFD064604E0FFF7E8FD2E
:10108000801B022805D868486C3000688007F5D5B9
:1010900010E07AE0C0F80080FFF7DAFD064604E0D1
:1010A000FFF7D6FD801B02286FD85F486C300068C0
:1010B0008007F5D42878400753D55B48383001685D
:1010C00041F080510160006800F080500090594864
:1010D000016841F480710160FFF7BAFD064604E043
:1010E000FFF7B6FD801B02284FD852480068C005A4
:1010F000F6D54D4EA868683601280FD0052830680F
:1011000010D020F001003060306820F00400306022
:10111000A868B8B1FFF79CFD00900FE0306840F080
:101120000100F4E740F004003060F7E7FFF790FDBE
:101130000099411A41F2883081426AD830688007AC
:10114000F4D50EE0FFF784FD009007E0FFF780FD87
:101150000099411A41F2883081425AD8306880079C
:10116000F4D4A869E8B3D9F80010C1F381010229C9
:1011700057D00228C7F8608003D0FFF769FD054605
:101180004AE0FFF765FD064605E042E0FFF760FD37
:10119000801B02283DD820688001F7D4D5E90701DB
:1011A000084347F6C07292FAA2F2696AB2FA82F272
:1011B0009140AA6A4FF0FF3303EB52024FF44033E1
:1011C00093FAA3F3B3FA83F39A40114308434FF021
:1011D000706292FAA2F2E96AB2FA82F2914008438E
:1011E00000E01CE0CBF80000C7F860A0FFF730FD7E
:1011F000054604E0FFF72CFD401B022809D82068B3
:101200008001F7D50BE000BFFFF722FD401B02284D
:1012100002D90320BDE8F88F20688001F4D40020B3
:10122000F8E70120F6E700000838024000004742D6
:10123000800E47420070004070B5054600202E6DBC
:101240000A46AC6CEB6CDBB204E02E6DAC6CEB6C64
:10125000521EDBB226431E4301D1002AF5D10C46B3
:10126000296800E0641E4A6B920401D5002CF9D174
:10127000696D012902D1284600F0D0FA044300D15B
:1012800004202A6840F2FF519163E96C002901D0E3
:10129000E86CC0B270BD70B504460026256D0846E6
:1012A000A36CE26CD2B204E0256DA36CE26C401E2C
:1012B000D2B21D43154301D10028F5D10D46206857
:1012C00000E06D1E416BC90401D5002DF9D1606DA0
:1012D000032803D1204600F0A1FA0646354300D189
:1012E0000426216840F2FF508863E06C10B1E06C86
:1012F000C0B270BD204600F008F80028FAD1304690
:1013000070BD704770477047704710B50446808CB9
:1013100086B0000400900D20019000214020CDE90E
:101320000201000104906946206800F08CFB0D2149
:10133000204600F099FB68B9002000F061FBC0F383
:101340004320042804D0FF2804D0012006B010BD9B
:101350000020FBE70220F9E72DE9F04790F8202074
:1013600081F85620828CA1F85420826A0027120E40
:1013700093090B70C2F383034B7002F003028A706F
:10138000826A120CCA70028D120A0A7190F8282023
:101390004A71C26A4FF6FF7A120E0AEA0212CA8036
:1013A000C26ACB88C2F3074243EA1213CB8002F031
:1013B0000F020A72828DC2F30723DA094A72C3F35D
:1013C00080128A72C3F34012CA72C3F300120A7306
:1013D00000224A73046A4FF00109002C7DD0012CD1
:1013E000FCD0022C7AD02927C3F380144C769B06BC
:1013F0005B0E01F81A3F10F8303F0C7844EAD31422
:1014000001F8014B03F07F0301F8013B50F8043F62
:101410001B0EDC090C70C3F341144C70C3F382043F
:101420008C709B071B0FCB7008C8CC78C3F30743A5
:1014300044EA9314CC70C3F340140C714A7103F066
:1014400001028A7130F8042CC2F30722D309CB7150
:10145000C2F380130B72C2F340134B72C2F300133A
:101460008B72C2F38103CB7202F003020A7310F88D
:10147000042C52084A734B4681F80E9050F8082B02
:10148000120E0A7450F8082C120C0AEA02224A8240
:1014900030F8082CC2F307244A8A22434A8210F803
:1014A000082C120641F8142F50F8042C0C68120E68
:1014B00044EA02420A6050F8042C0C68C2F3074266
:1014C00044EA02220A6030F8042C0C68C2F30722B6
:1014D000144310C110F8042C01E034E074E001F86A
:1014E000012B0268120E01F8032B0268120C12067F
:1014F0000A6002880C68C2F3072244EA02420A60CA
:1015000002780C6844EA02220A6042680C6844EAE5
:10151000126410C142680C78C2F3074244EA121404
:1015200001F8024B1207120D0A8082880C88C2F360
:101530000722144321F8024B0079400808704B70D1
:101540003846BDE8F0879B071B0D0B6190F82C30E7
:101550000C6944EA83030B61036B0C691B0E44EABC
:1015600093140C61C3F3C2040C7503F007034B75AD
:10157000036BC3F307435C098C75C3F38204CC751A
:101580009B075B0F0B76038E0C7EC3F3072344EAA5
:10159000D3140C760D690E7EB61C09FA06F46D1C88
:1015A000A5FB046C02FB04CC05FB02C40D7A09FA0E
:1015B00005F8A6FB085C04FB08C406FB0244C1F85E
:1015C0005080C1E912540FE790F82C309B069B0A1B
:1015D0000B61036B0C691B0E44EA03230B61036B65
:1015E0000C69C3F307431C430C61038E0C69C3F3FE
:1015F0000723641C42F10005ED0445EA5435E40478
:10160000C1E912454FF400740C65EDE610B50168B0
:101610000446486BC0050AD54FF4807088630120EA
:10162000A0640020E064204600F0B8F925E0486B93
:10163000800702D5022088631BE0486B000703D5B2
:1016400008208863042014E0486B800603D520201E
:10165000886306200DE0486BC00603D51020886320
:10166000052006E0486B800507D54FF400708863BD
:101670000720E064204600F092F92068C16B4CF22C
:101680003A329143C16310BD70B586B000240E4656
:1016900005468DF80C40047700F046F8762000945B
:1016A000CDE90140234622462146286800F0B2F9E0
:1016B000284600F079FC8DF80C009DF80C0038B934
:1016C000284600F062FB8DF80C009DF80C0018B164
:1016D0009DF80C0006B070BD31462846FFF73CFE71
:1016E0008DF80C009DF80C00A0B9B6F854006946BE
:1016F00000040090072001904020CDE90204000181
:101700000490286800F09FF90721284600F0ACF902
:101710008DF80C0005F1100007C88DE8070095E86A
:101720000F0000F077F9D3E7704700002DE9F0478C
:101730008CB01546DDE9146704460A4621684FF06F
:1017400000089A46C1F82C80C4F84880C4F850803C
:10175000C0F84C800120012F01D9606501E0C4F878
:1017600054802168CB6B40F22A3C43EA0C03CB63E4
:10177000274981460860A16D2648C863A16D2648A7
:10178000C86406FB07F0216883088031A06DFFF76D
:1017900023F9206A022803D106026D0A45EACA55D8
:1017A0001020CDE900604020CDE90208000104903E
:1017B0006946206800F047F91021204600F054F9EE
:1017C000002821D1401E7E43CDE9050690200790D8
:1017D00008A9022081E8010305A9206800F0F7F8B4
:1017E000012F01D9122000E01120CDE900506946F7
:1017F000206800F028F9012F01D9122100E0112101
:10180000204600F031F9E0640CB0BDE8F08700003C
:101810008C852542351C00084F1C000810B586B089
:10182000044600200C21CDE900014021CDE9021041
:10183000080104906946206800F005F90C21204653
:1018400000F012F906B010BDFEB50446006A00258E
:101850000E46032805D030B1012804D0022802D05A
:101860001FE02720FEBDB6F5805F05D0B6F5006FFE
:1018700004D03EB1262514E0272512E0204600F0D2
:1018800086FC02E0204600F049FC050009D1211D3C
:10189000D4E905700EC90096CDE90170206800F00A
:1018A000B9F82846FEBD00002DE9F0478CB004468B
:1018B000DDE91467154622684FF000089A46C2F821
:1018C0002C80C4F84880C4F85080C0F84C80012FA8
:1018D00001D9032000E0022060652068C26B40F25D
:1018E0001A331A43C263E26D2948D063E26D294876
:1018F000D06406FB07F0226883088032E06DFFF7B2
:101900006BF825494FF00109C1F80090206A0228C0
:1019100003D106026D0A45EACA551020CDE90060E0
:101920004020CDE90208000104906946206800F0DB
:101930008AF81021204600F097F8002824D1012FC2
:1019400001D8182000E01920CDE900506946206830
:1019500000F079F8012F01D9192100E01821204663
:1019600000F082F800280FD1401E7E43CDE9050625
:101970009020CDE90708CDE90989454605A92068E9
:1019800000F025F8E56428460CB0BDE8F0870000BB
:101990005B1C0008751C00088C8525427047704749
:1019A00010B5401EB0F1807F01D3012010BD4FF073
:1019B000E02460610F21601700F0ACFF0020A061FF
:1019C00007202061002010BDFEE7FEE770470A688F
:1019D00042624A688262D1E902231A43D1E90431A2
:1019E0000B43C16A1A4321F0F7011143C162002081
:1019F00070470069C0B27047006800F0030070478C
:101A000008B5024908440090006808BD142C014044
:101A1000FEF7F4BC70B50DF1100C11439CE870009A
:101A20002343194329434268314347F6FF639A43EE
:101A30000A434260002070BD03210160002070470E
:101A4000D0F8800070470A688260D1E901231A4308
:101A5000D1E903310B43C1681A436FF30B01114302
:101A6000C16000207047000070B5054600680E4652
:101A70000024416B11F0450FFBD0416B490703D5A2
:101A800003210422826304E0416BC90703D00121D2
:101A90008163084670BDFFF7ACFFB0422BD12968C7
:101AA00040F2FF5088630020FFF7AAFF2849084250
:101AB0004BD0002801DA1C2070BD410001D509205F
:101AC00070BD810001D50A2070BDC10001D50B2079
:101AD00070BD010101D50C2070BD410101D50D2063
:101AE00070BDC10101D50E2070BD010201D50F20CE
:101AF00070BD410201D5102070BD810201D51120B9
:101B000070BDC10201D5122070BD010301D51320A3
:101B100070BD410301D5142070BD810301D515208E
:101B200070BDC10301D5162070BD010401D5172079
:101B300070BD410401D5182070BD810401D5192064
:101B400070BD000701D51A2070BD204670BD000091
:101B500008E0FFFD0146002009684A6B12F0450FBE
:101B6000FBD04A6B520702D50320042207E04A6BE0
:101B7000D20702D001208863704740F2FF528A6387
:101B800070472DE9F0410446006815460E460027CF
:101B9000416B11F0450FFBD0416B490703D5032181
:101BA0000422826304E0416BC90704D001218163F0
:101BB0000846BDE8F081FFF71CFFB04212D1216852
:101BC00040F2FF5088630020FFF71AFF10F4604FC7
:101BD00003D0810404D51320EBE7000C288007E034
:101BE000410401D51020E4E7000401D50F20E0E70F
:101BF0003846DEE70146292009684FF480324B6BF6
:101C000013F0450F07D14B6BA2F1010213F0450F02
:101C100001D1002AF7D14B6BC3F3800302B113B19A
:101C20000320042204E04A6B520602D50020402221
:101C30008A63704710B5846B01212165A16C00296E
:101C4000FCD0FEF71BFDA06DFFF75BFB10BD10B5D0
:101C5000806B806DFFF756FB10BD10B5846B0121C2
:101C60002165A16C0029FCD0FEF708FDE06DFFF7AF
:101C70004AFB10BD10B5806BC06DFFF745FB10BD72
:101C80002DE9F04F91B000250F460695082610214A
:101C9000CDE90061402107950446CDE90215080110
:101CA0000490A84669462068FFF7CDFE1021204623
:101CB000FFF7DAFE002844D1A08C694600040090AA
:101CC000372001902068FFF7BEFE37212046FFF73E
:101CD000CBFE002835D1401ECDE9080630204FF05C
:101CE0000209CDE90A090120CDE90C80B246464639
:101CF00008A92068FFF76BFE3320CDE90060694634
:101D00002068FFF7A0FE33212046FFF7ADFE060056
:101D100017D10DF1180B40F22A682068416B11EAC7
:101D2000080F08D1416B8902F7D5FFF789FE4BF800
:101D300025006D1CF1E7416B090705D5C0F838A0F7
:101D4000042011B0BDE8F08F416B890703D5C0F8BE
:101D500038904846F5E7416B890603D52021816319
:101D60000620EEE7416B890504D54FF400718163CD
:101D70000720E6E740F2FF518163069800BA7860D9
:101D8000079800BA38603046DBE770B586B0044685
:101D90000120ADF8140000252068FFF72DFE58B390
:101DA000206A04285DD000200221C0268DE843006F
:101DB00003904802049069462068FFF744FE2046DD
:101DC000FFF7C8FE050018D1FFF71AFEA063042034
:101DD000FFF716FEE0630820FFF712FE20640C20D8
:101DE000FFF70EFE6064206A48B1012807D006287C
:101DF00005D0022803D011E0252006B070BD0320D5
:101E000001904020029069462068FFF71CFE05AA59
:101E100003212046FFF7B5FE0500EED1206A042815
:101E20001FD0BDF814006062000400900920CDE9C5
:101E3000010669462068FFF706FE2046FFF78AFE86
:101E40000500DAD1FFF7DCFDA0620420FFF7D8FD22
:101E5000E0620820FFF7D4FD20630C20FFF7D0FDDF
:101E600060632846C9E700002DE9F04F4A48494C15
:101E700087B00168002541F400610160006800F44A
:101E80000060059044481438016841F48001016005
:101E9000016801F480010591016841F004010160CD
:101EA000016801F004010591016841F00801016039
:101EB0000068032600F00800059002200190012030
:101EC000CDE902060C2004904FF4F85000906946CA
:101ED0003248FEF7C9FD0427694631480097FEF7EE
:101EE000C3FD3120FEF7F1FEA4F1C0004FF0006801
:101EF000C0E901854FF4806BB902C560C0E904B147
:101F00008900816120214FF44039C0E907194FF45D
:101F1000000A0904C0E90BA122490160C0E9097661
:101F2000A0658463FEF7F1FBA4F1C000FEF7ECFCB2
:101F3000A4F1600000F10802402182E82208890132
:101F40004161890081612021C0E907190904C0E9C4
:101F50000BA114494831C0E90018C0E90976E065D1
:101F60008463FEF7D2FBA4F16000FEF7CDFC0022F3
:101F700002213B20FEF7B6FE3B20FEF7A6FE002224
:101F800002214520FEF7AEFE4520FEF79EFE07B07B
:101F9000BDE8F08F60010020443802400008024094
:101FA000000C0240586402402DE9F04F87B0002534
:101FB00004468DF80050574EA846A94646F8A05F43
:101FC0000068FFF739FD0120FEF742FD0127376069
:101FD000BE02CDE9045601950295039501A920683A
:101FE000FFF731FD23680021B0015A6BC2F3C01224
:101FF00004E05A6B401EC2F3C0120CD0002AF8D085
:1020000048B140F2FF5098638DF800109DF8000031
:1020100000287AD101E00321F6E74FF4D570019052
:1020200008204FF0400ACDE9020A01A92068FFF715
:102030000AFD2046FFF7DEFD8DF800009DF8000048
:1020400010B94FF0804927623727CDE9015701A920
:102050002068FFF7F8FC37212046FFF705FD8DF8D3
:1020600000009DF80000D8B34FE00397CDE9015B75
:10207000CDE9045601A92068FFF7E5FC3721204689
:10208000FFF7F2FC8DF800009DF8000048BB2249E4
:10209000CDE9045649EA010001902920CDE9020763
:1020A00001A92068FFF7CFFC20680021426B12F0E5
:1020B000450FFBD0426B520702D50321042201E0F9
:1020C00040F2FF5282638DF800109DF8000040B985
:1020D0000020FFF795FCC10F08F1010805D008E0CA
:1020E00000E012E0BB465746BFE74FF6FF71884558
:1020F000BBD34FF6FF72904503D31B208DF8000031
:1021000003E0400001D5022020629DF8000007B0E6
:10211000BDE8F08F008025420000108030B589B006
:1021200000250446019528460295FFF769FC8001C9
:1021300002D50E2009B030BD01A92046FFF7A0FD51
:102140000028F7D10298C0031FD5A08C03A9000472
:102150000390372004904020CDE905050001079049
:102160002068FFF770FC37212046FFF77DFC002830
:10217000E0D10620CDE9035003A92068FFF763FCF6
:1021800006212046FFF770FCD4E72520D2E730B5C2
:1021900089B000250446019528460295FFF730FCDA
:1021A000800102D50E2009B030BD01A92046FFF7FD
:1021B00067FD0028F7D10298400320D5A08C03A921
:1021C00000040390372004904020CDE9050500016C
:1021D00007902068FFF737FC37212046FFF744FCC3
:1021E0000028E0D1022003900620049003A9206873
:1021F000FFF729FC06212046FFF736FCD3E7252010
:10220000D1E7000010B5064C01202070FEF7FCF865
:1022100018B9207820F001002070207810BD00004F
:102220002800002010B51446114A96B001201278FB
:10223000D20702D0032016B010BDA1B1012907D0EA
:102240004FF4007202290DD003290ED00420F2E7CA
:102250006846FEF7C7F8DDE91201400A40EAC150BE
:10226000206000E022800020E5E72260E3E7000034
:10227000280000201CB508464FF40071CDE900137A
:10228000002452022346FEF703F900B10124204640
:102290001CBD000010B5064C01202070FEF7A8F808
:1022A00018B9207820F001002070207810BD0000BF
:1022B000280000201CB508464FF40071CDE900133A
:1022C000002452022346FEF7FDF800B10124204607
:1022D0001CBD00002DE9F04107460B4815460E468F
:1022E000007808B900F086F9EFF31184202080F31C
:1022F00011882A463146384600F008F8E1B281F3E9
:102300001188BDE8F08100007C12002070B50E46F7
:10231000144900EB400001EBC0051446E86A18358B
:1023200020B101280FD0022805D113E0284600F083
:1023300095F9A04201D2002411E0224631462846F8
:1023400000F0B2FA0BE0284600F088F9A042F4D27F
:102350000446F2E73146284600F079FA0446204662
:1023600070BD00007C1200200FB408B504A90091D4
:102370006A46039900F003F801B05DF814FB2DE9FB
:10238000F04198B0064607A8029040200025CDE90C
:102390000305CDE9055690460C4614F8011B0029AB
:1023A00073D0252908D002A800F032FA0598002839
:1023B000F3DA18B0BDE8F081002001212278232A49
:1023C0001ED02B2A19D02D2A02D0302A08D102E0A3
:1023D00040F0010001E040F00200641C0029EDD152
:1023E00000222178A1F130030A2B0CD202EB8202E9
:1023F00001EB4202303A641CF3E740F00400ECE7E2
:1024000040F00800E9E70023CFB22E2F0BD114F8DB
:10241000011FA1F130070A2F05D203EB830301EB63
:102420004303303BF3E76C290DD068290BD07029AA
:1024300054D00BDC252916D0582931D063290CD073
:10244000642913D114E014F8011FECE7732934D088
:1024500075291BD0782909D122E0D8F80000011D88
:10246000C8F80010017802A800F0D2F9641C9DE7BA
:10247000D8F800100F1DC8F800700968CDE90020D9
:102480000A2202A800F0F6F8F0E733E0D8F80010CE
:102490000F1DC8F800700968CDE900200A2208E085
:1024A000D8F800100F1DC8F800700968CDE90020A9
:1024B000102202A800F042F9D8E7D8F80000011D68
:1024C000C8F80010076817F8011B0029CED002A831
:1024D00000F09EF905980028F5DAC7E7D8F8000063
:1024E000011DC8F8001001680820CDE90005034669
:1024F0001022DEE7059800287FF75BAF049820B133
:10250000024607A93046FFF7E5FEDDE9041008445E
:1025100005904EE710B5FEF7A1FBBDE8104002F0B4
:102520000CB8000030B51A4893B00025016841F09E
:1025300080510160006800F08050119015480168DA
:1025400041F4404101600068022400F440401190D1
:1025500001200090000401908001CDE9064008AA06
:102560000820A02182E813000B906846FEF7DAFCF1
:102570000CA90F2081E831004FF4A0500F90E00229
:10258000109005210CA8FEF7DFFB13B0002030BD32
:1025900040380240007000401048016841F470016A
:1025A00001600F48016841F0010101600C4A0021FF
:1025B0000832116002680B4B1A400260031D0A4A80
:1025C0001A60026822F48022026005480C30016023
:1025D00002495806803908607047000088ED00E025
:1025E00000380240FFFFF6FE1030002470477047AD
:1025F000FEE7000010B5124C03202061606111A0BD
:10260000A06104F1A800E0614FF480602062002026
:10261000A06260620BA12166E06204F595616166CB
:1026200010212067C4E91A10606709A1E01DFDF7B9
:102630005BFE08A12046FDF757FE2020A07110BDCB
:102640007C1200205465726D696E616C00000000A0
:102650005254540053454747455200000269C1682F
:102660008A4203D88068401A104400E0501A401E85
:10267000704700002DE9FC5F0E008146DDE90C4744
:10268000C6F1000098469346824600D408460125CC
:1026900003E000BF90FBFBF06D1C5845FADAA8453B
:1026A00000D9454624B1002E01DB780700D5641E11
:1026B000B80702D5B8F1000F0FD0F8070DD164B1FB
:1026C000A5420AD220214846641E00F0A1F8D9F89C
:1026D0000C000028F3DABDE8FC9FD9F80C000028B4
:1026E000F9DB002E02DA56462D2102E0780707D5E5
:1026F0002B21484600F08CF8D9F80C000028EADBC2
:1027000007F0030002280FD1B8F1000F0CD15CB123
:10271000A54209D230214846641E00F079F8D9F864
:102720000C000028F3DAD6E7CDE9004743465A46C5
:102730003146484600F002F8CDE700002DE9F84F99
:102740008246DDE90A4B0126984691460D46084629
:10275000374602E0B0FBF9F07F1C4845FAD2B84595
:1027600000D947465FEACB7017D1B4B15FEA8B70EE
:1027700002D5B8F1000F02D0202000900BE03020ED
:10278000FBE75046641E009900F042F8DAF80C00AE
:10279000002838DB0CB1A742F3D3DAF80C0000288C
:1027A00031DB00BFB8F1010F02D9A8F1010803E045
:1027B000B5FBF6F0484502D306FB09F6F2E7DFF871
:1027C0004C8000BFB5FBF6F000FB165518F8001062
:1027D000504600F01DF8DAF80C00002803DBB6FBC9
:1027E000F9F6002EEED15FEACB700CD0002C0AD0A7
:1027F000A74208D220215046641E00F009F8DAF8FA
:102800000C000028F2DABDE8F88F0000F06900083B
:1028100010B50446D4E90130421C934205D3236825
:102820001954A260E068401CE060D4E901028242D1
:1028300009D121682069FFF74DFDA168884203D0C6
:102840004FF0FF30E06010BD0020A06010BD2DE90A
:10285000F047C4681746894606464FF000083069BD
:10286000A04201D9051B02E0B168201A0D1AB06818
:102870006D1E001BA84200D80546BD4200D33D4650
:1028800070682A4620444946FDF70AFDB0687F1B60
:102890002C44A844A944A04200D10024F460002F95
:1028A000DDD14046BDE8F0872DE9F0410446884679
:1028B000D4E90207C51BE168606816460844B542C2
:1028C00006D94146FDF7ECFCB819E060BDE8F0819F
:1028D0002A464146FDF7E4FC761B08EB050132462B
:1028E0006068FDF7DDFCE660F0E700000FB4084B20
:1028F00010B504A902AA039800F02BF8044602A917
:10290000002000F091F8204610BC5DF814FB000098
:10291000292A00080907090E002804DB00F1E0203D
:1029200080F80014704700F00F0000F1E02080F8FC
:10293000141D704702E008C8121F08C1002AFAD10E
:1029400070477047002001E001C1121F002AFBD12F
:1029500070472DE9F84F994692468846054600276C
:1029600006E025280AD051464A4690476D1C7F1C38
:1029700028780028F5D13846BDE8F88F002315F8EF
:10298000011F18462E2915D115F8011F04232A29E5
:102990000DD06FF02F022978A1F13004092C09D84D
:1029A00000EB800002EB400008446D1CF3E758F890
:1029B000040B6D1C2A78002ADDD0632A07D0732A05
:1029C0000FD0104651464A4690477F1C2AE018F81F
:1029D000042B8DF8002000218DF801106E46012196
:1029E00003E058F8046B4FF0FF315A074FF0000432
:1029F00001D409E0641C84420BDA8C42FADB325DBC
:102A0000002AF7D105E0641C8C42FCDB305D002815
:102A1000F9D1274404E016F8010B51464A46904785
:102A2000641EF8D26D1CA3E70A68531C0B6010707B
:102A30007047000010B50446002084F80408401ECA
:102A4000C4F82C08204601F051FD08B1032010BD48
:102A5000B4F8FE01A0F52A41553901D0022010BD7D
:102A600094F83600B4F8371040EA01210848B0EB7A
:102A7000012F08D094F85210B4F8532041EA0221F3
:102A8000B0EB012F01D1002010BD012010BD0000CE
:102A90000046415400E0401C02780AB18A42FAD153
:102AA000D0B27047D0F82428D0F80008B0F80A381F
:102AB00090F802084343B1FBF3F0121D02CA19B1AA
:102AC000884203D3401AF8E7002070471168084491
:102AD0007047D0F81428891E921E8A4201D800201F
:102AE0007047D0F8282890F8020801FB00207047B2
:102AF0002DE9F0410F00054606D001F0B7FB022892
:102B00000BD20120BDE8F081D5F80C681EB1D5F8D4
:102B10001408B04208D8012606E0411CF2D0D5F8CE
:102B200014188142EED83E463446D5F81408641C89
:102B3000A04202D80224022E0AD32146284601F0E0
:102B400095FB38B1411CDDD00128DBD0B442ECD17B
:102B50000020D7E76FF070422146284602F020F8A7
:102B600030B957B122463946284602F019F820B14B
:102B7000012812D001242046C4E7C5F80C48D5F836
:102B80001008411CF7D0401EC5F8100895F805083C
:102B900040F0010085F80508EDE74FF0FF34EAE763
:102BA0002DE9F84F884682460D6800E06D1C2878B4
:102BB0002F28FBD05C28F9D00024DAF81C782646B0
:102BC000A85D761C202817D32F2815D05C2813D099
:102BD000FF2C32D2012101F043F85FEA00092CD02A
:102BE000B9F1800F04D2014668A0FFF753FF20BB64
:102BF00027F81490641CE3E7AA19C8F800202028DD
:102C000001D2042517E0002515E000BF07EB4400C2
:102C100030F8020C20280DD02E280BD06CB10020EB
:102C200027F814000B222021DAF8180801F057FCCD
:102C3000002606E0641E002CE8D10620BDE8F88FCF
:102C4000761C37F816002028FAD02E28F8D01EB1AE
:102C500045F0030500E0641E2CB107EB440030F89A
:102C6000020C2E28F7D1002081464FF0080B00906F
:102C700037F8160006F101065FEA000824D0B8F123
:102C8000200F04D0B8F12E0F04D1A64202D045F097
:102C90000305EDE70098584501D2A6421AD1BBF1D1
:102CA0000B0F0FD0A64201D045F003050CD84FF012
:102CB000080000904FEA896026464FF00B0B4FEA60
:102CC0001069D5E745F00305DAF818080178E52919
:102CD00038D039E04046B8F1800F10D3002100F021
:102CE000BFFF5FEA000805D02B4901EB080010F890
:102CF000800C804645F00205B8F1000F04D0014673
:102D000026A0FFF7C7FE20B14FF05F0845F003058E
:102D10000FE0A8F14100192802D849F0020908E0A3
:102D2000A8F16100192804D8413049F001091FFABF
:102D300080F8DAF81828009902F801800098401C01
:102D4000009095E705210170BBF1080F03D14FEA10
:102D500089604FEA1069C9F38100032803D06FEA44
:102D60000901890701D145F00205A90709D409F035
:102D70000301012901D145F01005012801D145F0D9
:102D80000805DAF81808C572002057E7222A3A3CED
:102D90003E3F7C7F00000000606400082B2C3B3D20
:102DA0005B5D00002DE9FC5F0546002100F022FA82
:102DB00000286ED1FF204FF6FF7A00908146A5F8DB
:102DC00020A800BFD5F81018D5F8000801F08EFB38
:102DD00006000ED1D5F81448207848B1E17AE528EC
:102DE00001F03F0170D00A0704D50F296CD107E02C
:102DF000042674E00F2903D0B9F1000F4DD052E042
:102E0000D5F81C1891B3420608D5627B009220F0D9
:102E10004000B5F806288146A5F82028484534D159
:102E2000627B0098824230D101912078A04620F048
:102E30004000401E00EB80010027DFF8A8B001EB46
:102E4000C00601241BF8071001EB0800008874B1CC
:102E500000F022FF0446FF2E17D2019830F816002A
:102E6000761C00F019FFA0420FD102E030E050457F
:102E70000BD17F1C0D2FE5D398F80000400609D533
:102E800044B1019830F8160020B1FF2000F0FF098E
:102E90001EE025E0A9F10100F8E7204602F0B6F9AE
:102EA000009988421BD0D5F81808C17AC9070BD100
:102EB0000A2101E0491E06D314F8012B10F8013B4A
:102EC000D21AF7D000E052B14FF0FF09A5F820A8C0
:102ED0000021284600F008F806003FF473AF3046A2
:102EE000BDE8FC9FE06400082DE9F041B0F80668F9
:102EF0000446761C30040F46000C41D0D4F810185C
:102F0000C1B3D4F80008B0F80A285209B6FBF2F3AE
:102F100002FB1362002A74D1491CC4F81018D4F8BB
:102F20000C1841B3B0F80A2890F802385209B6FBE1
:102F3000F2F25B1E1A4264D101F098F905460128AD
:102F400023D9681C3FD0D4F80008D0F81418A9423F
:102F50004ED87FB1D4F80C18FFF7CAFD050012D087
:102F6000012D12D0681C2ED0D4F8000802F0B7F959
:102F700048BB0CE004E0FFE7B0F80808B04240D8D6
:102F80000420BDE8F0810720FBE70220F9E7D4F830
:102F900000080021B0F80A2801F0A1FA2946D4F867
:102FA0000008FFF796FDD4F8001800274FF001083D
:102FB000C1F82C0811E000BF80F80488D4F800089C
:102FC00002F08DF908B10120DBE7D4F80008D0F851
:102FD0002C18491C7F1CC0F82C18D4F8000890F855
:102FE0000218B942E8D8D0F82C18C91BC0F82C1820
:102FF000C4F80C582946D4F80008FFF76AFDC4F855
:103000001008A4F80668D4F80008B0F80A184909AE
:10301000B6FBF1F201FB126100EB4110C4F8140899
:103020000020AEE72DE9FF5FD0F818780446D0F80D
:103030001C680C223946684601F048FA9DF80B00DE
:10304000C0071AD00020F8720125C4F81C082B46CE
:1030500032466946384601F0C9F82046FFF7A2FE1D
:1030600010B96D1C642DF2D3642D0CD004280BD143
:103070009DF80B00F872C4F81C689DF80B008007DF
:103080000FD5002004E0072004B0BDE8F09F401CED
:1030900036F810100029FAD10D211930B0FBF1F6E5
:1030A00000E001260021204600F0A4F8A0B9002786
:1030B000D4F81018D4F8000801F018FA60B9D4F860
:1030C00014080078E5280AD048B1002701212046DD
:1030D000FFF70AFF0028EBD0042812D012E07F1C73
:1030E0003046B742F2D1461E5FEA060A5FD0B4F816
:1030F00006182046A1EB0A0100F07CF8050003D079
:1031000074E00720054671E0D4F8180802F07EF854
:10311000CDF80C00D4F81018D4F8000801F0E6F946
:10312000050063D1D4F81418D4F81C980398487398
:103130000F20C8720020087388760AF0FF0BC8764B
:10314000ABF1010000EB800202EBC00500234FF65B
:10315000FF7E274E4A1C01E0604503D039F8150078
:10316000F4466D1CF75CC85516F80380070A08F88A
:10317000027000B960465B1C0D2BEDD3704502D088
:1031800039F8150008B94BF0400B81F800B0D4F8BD
:103190000018012081F8040800212046FFF7A4FE52
:1031A000050023D1AAF101005FEA000AB2D1D4F8E8
:1031B0001018D4F8000801F099F9050016D1D4F8D8
:1031C00014082022002104F5006401F088F9D4E9F4
:1031D00005010B2201F07AF9A0696169C07A00F05B
:1031E000180008732168012081F8040828464BE77D
:1031F000E064000870B5A0F80618D0F808380D464D
:103200000446012B4DD0D4F80008D0F81418994288
:1032100047D933B990F8001803290AD1D0F82438D7
:103220003BB1B0F80A1890F80208490911FB00F602
:1032300014E0B0F80818A94233D9D0F8240814E0F3
:1032400001F014F80346401C29D0022B29D3D4F8EE
:103250000008D0F81408984223D9AD1BD4F8000810
:10326000B5421946ECD2FFF734FCC4F80C38C0B1B3
:10327000D4F80018B1F80A285209B5FBF2F210444C
:10328000C4F81008B1F80A084009B5FBF0F200FBD9
:10329000125001EB4010C4F81408002070BD01204A
:1032A00070BD022070BD0000084910B50B5C002203
:1032B00053B901220A540A1801EB8000127A4068BF
:1032C0000168104688470246104610BD7012002063
:1032D00030B4054C231804EB80001B7A4068046965
:1032E0001846A44630BC60477012002030B4054D2B
:1032F0002C1805EB8000247A406885682046AC468F
:1033000030BC604770120020044A111802EB8000A4
:10331000097A406842680846104700007012002091
:1033200030B4054D2C1805EB8000247A4068C56840
:103330002046AC4630BC6047701200202DE9FC5F8F
:103340000D46044602F0B0FA5FEA00097AD194F81B
:103350000708002876D1D4F8240801274FF0020A84
:10336000002870D0691C3AD0D4F80C08A84200D2CA
:103370000546C4F80858002D63D02046691EFFF7A3
:1033800091FB0146C4F81408D4F80008FFF7A1FB2C
:10339000002870D0D4F800186D1EB1F80A28B5FBCB
:1033A000F2F391F802586D1E2B401D18D4F808084E
:1033B000B0FBF2F302FB13000028DDD0D4F818288C
:1033C000AA42D9D094F80608400646D591F80108DB
:1033D00001232146FFF7A4FF002875D137E002C87A
:1033E0000091D4F810188346022509B30026AD1CBD
:1033F00001918846761CD4F8000800F037FF01469A
:10340000012838D9481C5FD008F101008142F0D072
:103410000098854206D8CBF800600BF10400019AB1
:1034200004C08346D4F80008D0F814088842DDD8D8
:10343000D4F8240805600098854205D80021CBF80F
:103440000010D4E0AEE017E04FF01109CFE094F89F
:10345000060820F0400084F80608D4F8000801238C
:103460002A4690F801082146FFF740FF00282BD19B
:10347000C4F81858BBE092E0D4F80C08A84204D273
:1034800094F80618890700D405464FF00008D4F8D0
:103490000808C4F808884DB3D4F8002892F80268E8
:1034A000B2F80A184E4380B1691E401EB1FBF6F116
:1034B000B0FBF6F3994208D3711E8843C4F808089C
:1034C0002D1AD4F8141810E07EE0D4F8101851B971
:1034D00000211046FFF70CFB014601285FD0481C75
:1034E00072D0C4F81018C4F8141811BB3CE000BF27
:1034F00094F806088007D4F8000805D5FFF7F8FA15
:10350000010004D1354616E000F0B0FE0146481C2B
:103510005AD0012943D9D4F80008D0F814088842B9
:103520003DD9C4F81418D4F80808AD1B3044C4F8C9
:103530000808B542DCD8D4F808082844C4F80808BC
:10354000D4F80008B0F80A28B5FBF2F302FB1352D6
:1035500052B1FFF7BEFA10B3D4F80018B1F80A1848
:10356000B5FBF1F101EB0008D4F80008D4F8081815
:10357000B0F80A28B1FBF2F302FB131151B3D4F8EF
:103580001828424526D094F80618490612D590F816
:10359000010801232146FFF7C3FEA8B904E084F81F
:1035A00007A80220BDE8FC9F94F8060820F0400020
:1035B00084F80608D4F800080123424690F8010870
:1035C0002146FFF793FE18B184F807780120E9E758
:1035D000C4F8188804F6080003C8884207D9C4F85C
:1035E0000C0894F8060840F0200084F806084846C5
:1035F000D8E700002DE9F14FADF6382D00F0B3FE0D
:10360000074601220DF638210DF5006000F072FC2E
:10361000040010D10DF62820CDF818080DF624006E
:10362000CDF81C086846DDF8381A00F0A5FD040046
:1036300002D0042C02D0A7E00824A5E00021DDF888
:103640000008FFF755FA06000AD0012E0AD0701CB8
:103650000AD0DDF8000801F042FE040006D073E055
:10366000072471E002246FE001246DE03146DDF8AB
:103670000008FFF72EFADDF8005880460021B5F863
:103680000A28284600F02BFF0B222021284600F0B4
:1036900026FF2E242C701020E872F8B2CDF8240AF0
:1036A000A875C7F3072B85F817B0C7F3074A85F845
:1036B00018A04FEA176985F819903146284601F09D
:1036C0009DFD05F1200020222946074600F0FEFE60
:1036D00085F82140DDF80008DDF8081890F80008AA
:1036E000032806D1DDF80008D0F82408884200D16C
:1036F0000021384601F082FDDDF8000890F80278DC
:103700001BE000BFDDF800180120C1F82C88DDF8AF
:10371000001808F1010881F80408DDF8000801F03C
:10372000DEFD040010D1DDF800080021B0F80A2801
:10373000284600F0D4FE7F1EFFB2002FE2D168467B
:10374000FFF770FC040005D03146DDF8000801F0F9
:1037500071FB19E0DDF814081021C172DDF8241A9C
:10376000817580F817B080F818A080F8199031465C
:1037700001F044FDDDF80018012081F80408DDF8AF
:10378000000801F050FD04460DF63C2D2046BDE832
:10379000F08F000017B581B014460298009068467B
:1037A00000F0E3FD002802DA0B2004B010BD0D4A42
:1037B000002352F8201009B181F80038019900293E
:1037C00002D000BF81F8003842F8201001D0012C4F
:1037D00001D00020E9E7002202A901A800F08AFB3D
:1037E000E3E70000240000202DE9F747ADF6342D73
:1037F000060010D04FF0000802F01F0727F001026A
:103800000DF638210DF50060C6F8008800F072FB57
:10381000050005D09EE009200DF5246DBDE8F08778
:103820000DF62420CDF818080DF62400CDF81C085C
:103830006846DDF8381A00F09FFCDDF814480500F2
:1038400001D104B9062517F01C0F54D05DB1042D29
:1038500003D16846FFF7E6FB0546DDF8144847F05C
:10386000080755B176E0E07A10F0110F01D0072576
:1038700070E0780701D508256CE0380749D500F0DD
:1038800072FDA073010AE173010C2174000E6074D3
:1038900084F80B8084F81C8084F81D8084F81E80D6
:1038A00084F81F802146DDF8000800F082FD814683
:1038B0000021204601F0A2FCDDF800180120B9F13A
:1038C000000F81F8040822D0DDF800084946D0F83E
:1038D0002CA801F0AFFA05003CD1DDF80018A9F1E1
:1038E0000100C1F80C085146DDF8000800F0FEFDAB
:1038F00005000AD02EE06DBBE07AC10601D5042593
:1039000028E0B90701D5C007B1D1380701D547F084
:103910002007DDF8000806F500662146D0F82C08DF
:10392000C6E90704B77186F807804746DDF8000846
:1039300000F03FFD3061207FD4F81D1040EA0120E7
:10394000C6E90270B7617762DDF800083060B0F850
:103950000608B08028465FE710B596B00446002000
:10396000CDE90210049003E002A8641C01F0B2F952
:1039700021780029F8D1039800280DDB024601AB1D
:1039800005A9029800F067F830B9019903988842B8
:1039900002D1049816B010BD4FF0FF30FAE770B5B1
:1039A000044601F081FF002811D194F806188A0618
:1039B0000DD5480612D5D4F800080123214690F809
:1039C0000108D4F81828FFF7ABFC08B1012070BD3E
:1039D00094F8060820F0400084F80608D4F81C1873
:1039E000D4F8000800F082FD0028F0D1D4F8205867
:1039F000E87A40F02000E87294F80C082877B4F8D0
:103A00000C08000A6877D4F80C08000CA877D4F8E2
:103A10000C08000EE877D4F81018284604F5006466
:103A200001F0ECFB00F09FFCA875010AE975010CA0
:103A30002976000E68760020A874E874A07920F03A
:103A40002000A0712168012081F804082068BDE8E9
:103A5000704001F0E8BB2DE9F84F884600219946F7
:103A600015460446196001F01FFF002808D194F89C
:103A70000708002804D194F80608800702D407201C
:103A8000BDE8F88FD4F80808012741194FF0020A61
:103A9000814270D3D1E0D4F80028D4F80818B2F8E5
:103AA0000A08B1FBF0F300FB1313002B7DD1B1FB2F
:103AB000F0F092F802385B1E184010F0FF061ED19D
:103AC00031B1D4F8240840B12046FEF7EBFF09E0FD
:103AD000D4F8100840B9002101E0D4F814181046B9
:103AE000FFF706F8002846D0012840D0411C74D0CA
:103AF000C4F81408D4F8101809B9C4F8100894F8D8
:103B00000608400610D5D4F800080123214690F895
:103B10000108D4F81828FFF703FC68BB94F80608DE
:103B200020F0400084F80608D4F81418D4F80008EF
:103B3000FEF7CFFFD8B130440090D4F80008B0F8B9
:103B40000A18B5FBF1F15FEA010B34D090F80218C6
:103B500006EB0B028A4201D9A1EB060B90F8010893
:103B60005B464146009AFFF7DBFB28B905E084F885
:103B700007A8022084E763E02FE0D4F81818009823
:103B8000081A58450ED2D4F80018B1F80A2800FBDC
:103B90000281204600F09AFC94F8060820F04000CC
:103BA00084F80608D4F8000800E01DE0B0F80A68C0
:103BB00006FB0BF635E0D4F8182800998A4210D09D
:103BC00004F6080106C991420BD290F801080123BE
:103BD0002146009AFFF78AFB18B184F80778012084
:103BE0004EE70098C4F81808D4F80008D4F808186C
:103BF000B0F80A08B1FBF0F200FB1212861AAE42CE
:103C000000D92E46B1FBF0F200FB121020443246E0
:103C1000414600F05BFC94F8060840F0400084F850
:103C20000608D4F80808B0443044C4F80808D9F8A5
:103C300000008119AD1BC9F80010002D7FF42BAFD7
:103C400004F6080003C8884201D9C4F80C0894F8A7
:103C5000060840F0200084F80608002010E7000065
:103C6000802804D30B4A51B1FF2801D900207047A6
:103C700002EB4000A0F58050B0F8000F704732F81A
:103C80001130834203D0491C89B28029F7D3803197
:103C9000C8B270471A6500080021064B00E0491CB5
:103CA00033F81120002A04D08242F8D1024830F8BB
:103CB000110070471A660008FA67000810B50A225A
:103CC0000EA11548FFF790FD020001D013A109E0F5
:103CD0001AA1002000F086FB0F48FFF760FE0200EB
:103CE00005D01FA1002000F07DFB012010BD24A104
:103CF000002000F077FB002010BD0000303A2F5369
:103D0000544D3332463478782F48656C6C6F576F5A
:103D1000726C642E74787400480A00201B5B313B7F
:103D200033316D4372656174652046696C65204569
:103D300072726F72202D2025640D0A001B5B313BCF
:103D400033326D4372656174652046696C65204647
:103D5000696E697368202D2025640D0A000000003B
:103D60001B5B313B33316D53796E632046696C6563
:103D7000204572726F72202D202564200D0A0000EC
:103D80001B5B313B33326D53796E632046696C6542
:103D90002046696E697368202D202564200D0A0075
:103DA000F8B50C46064651431A48FFF7C7FA050016
:103DB00006D0024618A1002000F014FB2846F8BDEA
:103DC0001DA1002000F00EFB6B4622463146114833
:103DD000FFF741FE0400024601D01DA10EE024A120
:103DE000002000F0FFFA0B492AA0FFF7B5FD0948B3
:103DF000FFF7D5FD0400024605D02EA1002000F0FB
:103E0000F1FA2046F8BD33A1002000F0EBFA0020C3
:103E1000F8BD0000480A00201B5B313B33316D5375
:103E200065656B2046696C65204572726F72202D46
:103E30002025640D0A0000001B5B313B33326D53BB
:103E400065656B2046696C65204F4B0D0A000000CC
:103E50001B5B313B33316D57726974652046696C69
:103E600065204572726F72202D202564200D0A0096
:103E70001B5B313B33326D57726974652046696C48
:103E8000652046696E697368202D202564200D0A1F
:103E900000000000537461792048756E6772792CB8
:103EA000205374617920466F6F6C6973682E0D0A18
:103EB000000000001B5B313B33316D53796E632092
:103EC00046696C65204572726F72202D2025642032
:103ED0000D0A00001B5B313B33326D53796E63205A
:103EE00046696C652046696E697368202D202564DB
:103EF000200D0A002DE9FF474FF0000A0746C0F8E1
:103F000000A01646084600F030FA050003D50B2045
:103F100004B0BDE8F087954850F82540A4B13C6056
:103F200094F8000828B194F80108FFF7EDF9C107EB
:103F30000CD084F800A8E8B284F80108FFF7B4F9BF
:103F4000C10708D00320E3E70C20E1E70EB14007EA
:103F500004D40020DCE71EB1400701D50A20D7E7D2
:103F600094F8010804F60A020221FFF7B1F970BBC8
:103F7000B4F80A08B0F5007F32D3B0F5006F2FD83F
:103F8000002529462046FEF755FD012824D10020B2
:103F90004FEA0D0704EB001191F8C22101F5DF7122
:103FA0002AB10A7AD1F8091042EA012100E0002181
:103FB00047F82010401C0428ECD3002657F8265060
:103FC00035B129462046FEF735FD10B90AE007E075
:103FD0000220761C042EF1D3032801D0F0BB01E0AF
:103FE000012095E7B4F80B00B4F80AC8604566D123
:103FF000E08A28B994F82400D4F8251040EA01207A
:10400000C4F81808217C814684F80318012901D0DE
:10401000022954D14143607B84F80208F0B1421E6A
:1040200010424CD1B4F811204FEA5C13B2FBF3F606
:1040300003FB1626A4F8082886B9B4F813602EB935
:1040400094F82060D4F8217046EA0726E7892FB15A
:10405000B2FBF3F307EB0108434400E02FE09E427C
:104060002DD3F61AB6FBF0F048B3012640F6F678E9
:10407000404500D302264FF6F678404500D303268C
:104080002F44C4F82078801C2B44C4F81C58C4F872
:104090002838C4F81408032E13D082B13944C4F868
:1040A0002418022E19D000F0010100EB400001EBB2
:1040B0005000401E6044B0FBFCF149450FD90D2073
:1040C00026E7002AFBD194F82C10D4F82D2080008C
:1040D00041EA0221C4F82418EBE74000E9E74FF079
:1040E000FF30C4F81008C4F80C08802084F80508D4
:1040F000032E30D1208E01282DD12046691C00F0DE
:10410000F5F940BB84F805A8B4F8FE01A0F52A41F2
:10411000553920D12078D4F8011040EA0120144903
:10412000884218D194F8E401D4F8E51140EA01205E
:10413000104988420FD194F8E801D4F8E91140EA17
:104140000120C4F8100894F8EC01D4F8ED1140EA0D
:104150000120C4F80C08054984F80068091F088884
:10416000401C0880A4F80608F3E6000024000020A4
:10417000525261417272416173B5044601980178EF
:104180002F2901D05C2901D1401C01900025C4F8E1
:10419000085801980078202806D200212046FFF711
:1041A00029F8C4F814587CBD01A92046FEF7F8FC94
:1041B0000028F8D12046FEF7F5FDD4F81818C97A82
:1041C00028B10428EFD14907EDD405207CBD49076B
:1041D000FCD4D4F81418C87AC006F6D5D4F8000870
:1041E00000F0E7F8C4F80808DEE700007CB51646E2
:1041F0001C4605460B2200F069F9052C11D91A4A14
:104200000CE00021B61C2346044663F35F0440081B
:10421000E30300D55440491C1029F4D3308800280A
:10422000EFD107214FEA0D0204F00F00303039289A
:1042300000D9C01D5054491E2409F5D17E20505488
:10424000002000E0401C884202D22B5C202BF9D1D8
:10425000082902D2535C491C00E020232B54401C47
:104260000828F5D37CBD0000211001002DE9F041A4
:104270000D46044602290DD3D4F81408A84209D9E2
:1042800094F800084FF0FF36012807D0022836D0F6
:1042900003284BD001263046BDE8F081B4F80A0867
:1042A00005EB5507B7FBF0F0D4F820180144204681
:1042B00000F01CF90028EED1B4F80A08B7FBF0F1C1
:1042C00000FB11717F1CB7FBF0F014F80180D4F8EB
:1042D00020180144204600F009F90028DBD1B4F889
:1042E0000A08B7FBF0F100FB1170215C48EA0120DD
:1042F000E90701D00609CEE7C0F30B06CBE7B4F817
:104300000A08D4F820184008B5FBF0F00144204614
:1043100000F0ECF80028BED1B4F80A186800B0FB31
:10432000F1F201FB120020440688B4E7B4F80A0851
:10433000D4F820188008B5FBF0F00144204600F0C6
:10434000D5F80028A7D1B4F80A18A800B0FBF1F2FC
:1043500001FB120020440178D0F8010041EA00205E
:1043600020F0704697E70020704710B504464FF0E4
:10437000FF302268002A13D0114600E0491C0B7858
:10438000202B0ED33A2BF9D112F8013B303B0A2BEC
:1043900006D28A4204D1002B02D1491C1846216062
:1043A00010BD002010BDEFF30580002800D00120D3
:1043B00070470246488B92F80028032A02D1898A66
:1043C00040EA0140704710B50020FBF7A9FF01202B
:1043D000FBF7A6FF0020FBF7DFFF0120FBF7CEFF76
:1043E000002010BDFDF7C0BF86B000F0A9FF18B1D6
:1043F00016A10020FFF7F6FF1BA10020FFF7F2FF38
:104400002048002201210068059005A800F0E2F88C
:1044100004461DA10020FFF7E5FF4FF4FA71204686
:1044200000F0EAF817491422091D6846FBF738FF27
:104430000021684600F08BF81949886000F078F890
:1044400018A10020FFF7CEFFFEE700001B5B313B09
:1044500033316D53797374656D20496E69742045ED
:1044600072726F722E0A00001B5B313B33326D6F2C
:104470007354696D65724465662053746172742E5D
:104480000A0000002C6400081B5B313B33326D6F67
:104490007354696D6572446566204F4B2E0A0000A7
:1044A000000000201B5B313B33326D6F734B657234
:1044B0006E656C5374617274204F4B2E0A000000BD
:1044C00001460020842900D0C81C704704E000BFCA
:1044D00011F8013B00F8013B521EF9D27047C9B2F6
:1044E00001E000F8011B521EFBD2704770B5054673
:1044F000D0F82C080C460026A04210D0284600F028
:10450000EEFE06000BD195F801080123224629464C
:10451000FEF7ECFE08B1741E0126C5F82C483046A3
:1045200070BD10B500B9012001F05EF8002010BD8B
:1045300010B501F04BF9002010BD10B501F09AFD47
:10454000012803D0BDE8104001F034BA10BD30B5E9
:10455000044685B00D46B0F90800FFF7B1FF002111
:1045600004AA0090CDE901210391208A2B4682B252
:10457000D4E9001001F0A0FC012802D0002005B011
:1045800030BD0498FBE7000010B50020FBF712FFD8
:10459000044805A10268521C0260BDE810400020DA
:1045A000FFF720BF000000201B5B313B33366D540A
:1045B0006F67676C65204C45445F475245205468DF
:1045C00072656164204F4B20202D202025642E0A27
:1045D0000000000008B500680090012907D0002005
:1045E00013460246012103A001F0A6FE08BD0120EA
:1045F000F6E70000000000002DE9FC410025074619
:104600002E4601950C0000D10124FFF7CCFE009648
:1046100090B101AB22460921384601F0D7FE0128AE
:1046200012D1019888B10A494FF080500860BFF359
:104630004F8FBFF36F8F08E00023224604213846D6
:1046400001F0C4FE012800D0FF252846BDE8FC810A
:1046500004ED00E070B50B4C054620684560E0684D
:104660002168854205D2606BBDE87040091D00F0ED
:10467000C9BE206B091D00F0C5FEA06A854200D2AC
:10468000A56270BD2C00002010B500F0DFFE124CBA
:104690002068A0B9114800F0A7FE1048143000F0BF
:1046A000A3FE0E48A0601430E06000220C210A2016
:1046B00001F096F9206030B109A100F063FFBDE878
:1046C000104000F0E3BE502080F31188BFF34F8FFD
:1046D000BFF36F8FFEE70000640000207818002011
:1046E000546D72510000000070B5124E124C1AE069
:1046F00001F0A4F83068D0B101F0BCFD00F0A6FED6
:10470000F068C568281D00F05DFEA068401EA0602E
:104710006068401E606000F0B9FE286B00F0CAFEC1
:10472000284600F0C7FE60680028E1D170BD01F0A6
:10473000A1FDF8E7501800202C00002030B4026CD6
:104740000B46002A0BD0C1681144C1604468A142E5
:1047500001D30168C16030BC1846FBF7A1BD30BC75
:10476000704770B51646026C0446002582B1C6B18A
:10477000E068FBF795FDE168206C091AE1602268AA
:10478000914202D26168081AE060022E16D01AE047
:104790002068C0B9606801F0E7FC05460020606051
:1047A00011E0A068FBF77CFD216CA0680844A060C4
:1047B0006168884207D32068A06004E0A06B10B154
:1047C000A06B401EA063A06B401CA063284670BD78
:1047D00010484FF44061420706D0C01D0D4920F03B
:1047E0000700411AC1F540610B4A00230144C2E9A8
:1047F00000030839103A21F0070111604B600B608B
:104800000B1AC0E9001393604FF000405360D06072
:1048100070470000A018002090000020074C4FF0C7
:104820008056074DFFF760FF20680128FAD92E60F7
:10483000BFF34F8FBFF36F8FF4E7000074170020B2
:1048400004ED00E030B5114900E011460A688242EB
:10485000FBD34B685C18844203D14068184448601D
:10486000084643681C18944209D1084C103C24683F
:10487000A24209D052681A4442600A681268026073
:10488000814200D0086030BD0460F9E7900000204C
:1048900070B5002441600B4D0061914206D8D11AD9
:1048A0008269914206D2011DE86807E09A4203D26C
:1048B000994201D3012403E0011DA86800F0A2FD84
:1048C000204670BD6400002030B587B02C4D4CE010
:1048D0000498002849DB069C606910B1201D00F097
:1048E00071FD02A800F0BAF8024604980A283CD2EA
:1048F000DFE800F00505053B273805053B2705984F
:10490000A169034601442046FFF7C2FF01282CD1CC
:10491000616A20468847E069012826D1002000907E
:104920000598A169002342181946204601F04EFD62
:10493000D8B9502080F31188BFF34F8FBFF36F8F2A
:10494000FEE70598A06128B1811813462046FFF7BD
:104950009FFF0AE0502080F31188BFF34F8FBFF311
:104960006F8FFEE7204600F0A5FD00231A4604A93C
:10497000286801F067F80028AAD107B030BD000010
:10498000640000202DE9FC410F46054600F056FF6B
:1049900001A800F063F80446019818B101F06AFC20
:1049A000BDE8FC81234EAFB1F0680068B0B30027CA
:1049B000291B3A46306800F0F9FD01F05BFC002845
:1049C000EED11D494FF080500860BFF34F8FBFF309
:1049D0006F8FE5E7A542EBD801F04CFCB0682746A5
:1049E000C068C468201D00F0EDFCE069012811D109
:1049F000A0692B4641193A462046FFF749FF012896
:104A000008D100200346014600902A46204601F0C6
:104A1000DDFC20B1616A20468847C1E707E05020ED
:104A200080F31188BFF34F8FBFF36F8FFEE701272D
:104A3000BEE700006400002004ED00E00648016BC2
:104A4000096829B1016BC968C96849688162704702
:104A50004FF0FF31FAE700002C00002070B505464A
:104A600001F016FB064E04467068844203D200F043
:104A700009F8012000E0002028602046746070BD25
:104A800064000020F8B5194D1FE0C068C4680668CE
:104A9000201D00F097FC616A20468847E0690128E4
:104AA00013D1A0693044B04206D924616060211D51
:104AB000A86800F0A7FC08E000200346014600902B
:104AC0003246204601F082FC38B1A868016800290E
:104AD000DBD1E968C5E90210F8BD502080F31188E8
:104AE000BFF34F8FBFF36F8FFEE70000640000201D
:104AF00008484068401C4FF0500080F3118804D0F3
:104B0000BFF34F8FBFF36F8FFEE7BFF34F8FBFF33E
:104B10006F8FFEE774000020074CA068016841B168
:104B2000C0680021D0F80000FFF72CFFFFF7CCFE93
:104B3000F3E701210020F7E76400002070B5044688
:104B400000F084FC04F124050AE0606A58B12846AC
:104B500001F056FB08B100F07BFDA06C401EA06484
:104B6000A06C0028F1DC4FF0FF36A66400F08EFC4C
:104B700000F06CFC04F110050AE0206958B12846E9
:104B800001F03EFB08B100F063FD606C401E606404
:104B9000606C0028F1DC6664BDE8704000F076BC13
:104BA0002DE9F04717460D460446022903D3D4F8F1
:104BB0001408A84202D80220BDE8F08794F8001833
:104BC00007F0FF084FF00109012927D0022965D01D
:104BD0000329F0D1B4F80A08D4F820188008B5FBEE
:104BE000F0F001442046FFF781FC0028E4D1B4F83E
:104BF0000A28A900B1FBF2F302FB13110A194FF0C6
:104C00007043D2F8011003EA0121394311700B0AF5
:104C100053700B0C9370090ED17058E0B4F80A0869
:104C200005EB5506B6FBF0F0D4F8201801442046F9
:104C3000FFF75CFC0028BFD1B4F80A08B6FBF0F11E
:104C400000FB1160761C2044E90703D0017868F36B
:104C50001F1100E03946017084F80498B4F80A087E
:104C6000D4F82018B6FBF0F001442046FFF73EFCD4
:104C70000028A1D1B4F80A18B6FBF1F201FB1261C9
:104C80002144EA0702D0C7F3071205E00A78C7F308
:104C9000032302F0F0021A430A7018E0B4F80A087D
:104CA000D4F820184008B5FBF0F001442046FFF787
:104CB0001DFC002880D1B4F80A286900B1FBF2F38A
:104CC00002FB131121443A0A81F800804A7084F8EB
:104CD000049871E7F8B50E4604460A2902D10D2161
:104CE000FFF7F8FF6568002D16DB60196D1C067371
:104CF0003D2D0DDB6B462A4604F10C012068FEF7C2
:104D0000AAFE0098A84201D1002501E04FF0FF352E
:104D10006560A068401CA060F8BD00002DE9F0416E
:104D20000546002700F08AFD314E306808B9FFF7CC
:104D30004FFDF06805424BD1C5B3083568070ED06A
:104D400005F00700C0F108000544680707D05020AF
:104D500080F31188BFF34F8FBFF36F8FFEE72DB342
:104D60007068854234D82248103001460C6801E052
:104D700020460C466168A94202D221680029F7D179
:104D800031688C4224D00768216801606068083768
:104D9000411B10290FD96019420708D0502080F319
:104DA0001188BFF34F8FBFF36F8FFEE710E04160B4
:104DB0006560FFF747FD61687068401A7060B2680F
:104DC000904200D2B060F06801430020C4E90001C5
:104DD00001F050FA780707D0502080F31188BFF314
:104DE0004F8FBFF36F8FFEE73846BDE8F0810000BC
:104DF000800000200449086818B10868026D521C40
:104E000002650868704700002C00002010B5031FE1
:104E10004FF080741C601B1F1960191F044B0B603E
:104E200014390A60091F6FF0020244380A6010BD8D
:104E3000F14A00082DE9F0410F460646022917D332
:104E4000D6F81408B84213D9002523E03946304675
:104E5000FFF70CFA040021D0012C09D0601C09D006
:104E6000002239463046FFF79BFE050016D103E0CD
:104E7000022513E0012511E0D6F81008411C08D0E6
:104E8000401CC6F8100896F8050840F0010086F8A6
:104E900005082746D6F81408B842D7D82846BDE8F2
:104EA000F081000010B5074B4FF4005110B10128FC
:104EB00002D005E0012200E000221846FBF7C3FE05
:104EC000002010BD000802400E4800B5016887B000
:104ED00041F0040101600068694600F0040005909B
:104EE0004FF40050009001200190029002200390A6
:104EF0000548FBF7B9FD0020FFF7D4FF07B00020FD
:104F000000BD0000303802400008024010B54FF4E8
:104F100080710948FBF78EFE08490028087802D006
:104F2000012803D006E028B9012000E00020087025
:104F300000204870002010BD00040240180000202E
:104F400010B5FFF7C1FF00F037F900F00FF80020AF
:104F5000FFF7A8FF002000F01DF9034900200870AA
:104F6000FFF7D4FF002010BD180000200D4800B549
:104F7000026887B0002142F002020260006800F07F
:104F8000020005904FF48070CDE9000101200290ED
:104F90000220039069460448FBF766FD07B0002035
:104FA00000BD000030380240000402400148007893
:104FB000704700001800002010B586B0FFF7C0FF52
:104FC000FFF7F4FF012801D024A13CE02A492B4837
:104FD000FBF7EBFA28490446CA788878CDE9000245
:104FE0004B780A7826A102A8FDF780FC02AB224686
:104FF00026A10020FFF7F6F914B122462FA114E0F4
:1050000001221D493648FEF7C5FB020001D035A13B
:105010000BE03DA103A8FDF769FC03A8FEF7EAFA3F
:10502000020008D0082A06D03BA10020FFF7DAF9D9
:10503000012006B010BD3FA10020FFF7D3F9FEF715
:105040003DFE20B143A10020FFF7CCF9F0E748A1D5
:105050000020FFF7C7F90020EBE700001B5B313BA6
:1050600033316D534420636172642072656D6F76D5
:1050700065642E0A000000001A000020DC690008A8
:105080002563256325632563000000001B5B313B1E
:1050900033326D46415446535F4C696E6B447269BE
:1050A00076657220726573203D2025642C20534460
:1050B00050617468203D2025732E0A001B5B313B34
:1050C00033316D46415446535F4C696E6B4472698F
:1050D000766572206572726F722025642E0A000058
:1050E000180200201B5B313B33316D4D6F756E74C0
:1050F00020766F6C756D65204572726F72202D2061
:1051000025640D0A00000000303A2F53544D33320D
:1051100046347878000000001B5B313B33316D660C
:105120005F6D6B646972204572726F72202D20254D
:10513000642E0A001B5B313B33326D665F6D6B641E
:1051400069722046696E697368202D2025640D0AF6
:10515000000000001B5B313B33316D46696C6520FC
:10516000437265617465204572726F722E0D0A007C
:105170001B5B313B33336D202D202D202D202D2026
:10518000534420494E49542046494E4953482E0D18
:105190000A00000010B5074B4FF4004110B1012880
:1051A00002D005E0002200E001221846FBF74BFD8B
:1051B000002010BD000002400E4800B5016887B015
:1051C00041F0010101600068694600F001000590AE
:1051D0004FF40040009001200190029002200390C3
:1051E0000548FBF741FC0020FFF7D4FF07B0002083
:1051F00000BD0000303802400000024081760A0AFB
:10520000C2760A0C0275090E4175704701460020EE
:105210000B22430803EBC01011F8013B521E184447
:10522000C0B2F6D1704770B5044600F058F80500DA
:1052300053D194F80008032847D194F805080128B1
:1052400043D1B4F80A2800212046FFF748F9552039
:1052500084F8FE01AA2084F8FF01522020706070BB
:105260006120A0704121E170722284F8E42184F869
:10527000E52184F8E61184F8E701D4F8100884F8F1
:10528000E801010A84F8E911010C84F8EA11000E22
:1052900084F8EB01D4F80C0884F8EC01010A84F8D6
:1052A000ED11010C84F8EE11000E84F8EF01D4F832
:1052B0001C280123521CC4F82C2894F8010821460C
:1052C000FEF72EF8002084F80508002294F8010863
:1052D0001146FDF7FDFF00B10125284670BD2DE9FF
:1052E000F041044690F80408002728B3D4F82C585D
:1052F00094F8010801232A462146FEF711F808B167
:10530000012719E0002084F80408D4F82008D4F814
:105310001818281A88420FD294F803680AE0D4F8C3
:1053200018080123054494F801082A462146FDF790
:10533000F7FF761E022EF2D23846BDE8F08100005B
:1053400010B5FBF793FCFDF7EDF8FFF73CF808B15B
:1053500008A103E0FFF730FE28B10CA10020FFF701
:1053600041F8012010BD0FA10020FFF73BF80020FD
:1053700010BD00001B5B313B33316D4C454420496F
:105380006E6974204572726F722E0A001B5B313B8E
:1053900033316D534420494E4954204552524F52A7
:1053A0000D0A00001B5B313B33326D4F53205379A4
:1053B0007374656D20496E69742046696E697368FF
:1053C0002E0A0000D0E9013201699A60D0E9012378
:1053D0005A604A68824201D182684A6000220261B2
:1053E0000868401E0860704700F108014FF0FF3266
:1053F000C0E90112C1600161002101607047002114
:105400000161704730B50B685A1C02D000F10802E8
:1054100002E0026904E02246546825689D42FAD9F8
:1054200053684B6099608A60516008610168491C4B
:10543000016030BD42684A6093688B609368596030
:10544000916008610168491C01607047502080F339
:105450001188BFF34F8FBFF36F8F0A494868401C14
:10546000486001280CD10848006810F0FF0F07D0F1
:10547000502080F31188BFF34F8FBFF36F8FFEE78B
:10548000704700007400002004ED00E008494868FF
:1054900028B1401E486001D180F311887047502028
:1054A00080F31188BFF34F8FBFF36F8FFEE70000CB
:1054B0007400002070B5002827D0144DA0F1080416
:1054C0006168E868014207D1502080F31188BFF37A
:1054D0004F8FBFF36F8FFEE722683AB1502080F301
:1054E0001188BFF34F8FBFF36F8FFEE78143616079
:1054F00000F0A4F960686968084468602046FFF716
:10550000A1F9BDE8704000F0B5BE70BD800000207C
:1055100006484FF47A710068B0FBF1F14FF0E020DB
:10552000491E416107210161704700009800002079
:1055300010B5FAF79FFE114910280ED300F1E020B4
:1055400090F8F0030A78904207D2502080F3118837
:10555000BFF34F8FBFF36F8FFEE70948006889687C
:1055600000F4E060884207D9502080F31188BFF32F
:105570004F8FBFF36F8FFEE710BD00007400002057
:105580000CED00E010B5084B002200BF53F832408C
:105590001CB1521C082AF9D310BD43F8321003EB9A
:1055A000C201486010BD00003417002070B51546D8
:1055B0000E460446FFF74AFF616C0020491C00D1EB
:1055C0006064A16C491C00D1A064FFF75FFFA06B71
:1055D00028B92A46314604F1240000F071F820462B
:1055E000BDE87040FFF7AABA70B5020022D0164C91
:1055F000E06A38B1502080F31188BFF34F8FBFF3BA
:105600006F8FFEE700F01AF9E06885182068001D2A
:10561000FFF7D8FE38B9206890F82C100120884098
:105620002169814321612846FFF714F800F022FE2A
:10563000002807D105494FF080500860BFF34F8F15
:10564000BFF36F8F70BD00002C00002004ED00E060
:1056500001490120C86170472C00002070B50D463B
:1056600050B1154C21681831FFF7CCFE2068001DA1
:10567000FFF7A8FE40B10FE0502080F31188BFF380
:105680004F8FBFF36F8FFEE7206890F82C1001203A
:105690008840216981432161681C05D0E068284465
:1056A000BDE87040FEF7D6BF2168BDE870400348F2
:1056B000091DFFF7BFBE00002C0000206418002069
:1056C00070B515460E4650B1144C21681831FFF7DD
:1056D000B1FE2068001DFFF775FE40B10FE05020BD
:1056E00080F31188BFF34F8FBFF36F8FFEE7206801
:1056F00090F82C1001208840216981432161012DFF
:1057000005D0E0683044BDE87040FEF7A3BF2168D3
:10571000BDE870400248091DFFF78CBE2C00002038
:105720006418002070B5040039D01D4DE06A296866
:10573000C96A884233D2A069002804DB2868C06A9D
:10574000C0F10800A061E16A164E01EB81016069B9
:1057500006EB810188421FD1201DFFF733FE012196
:1057600050B9E06A00EB800256F8222022B92A697B
:1057700001FA00F082432A612868C06AE0622A695F
:1057800081401143296100EB800006EB8000211D60
:10579000BDE87040FFF74EBE2868C06AE06270BD89
:1057A0002C0000207417002028B107490A6A026003
:1057B000C96841607047502080F31188BFF34F8F54
:1057C000BFF36F8FFEE700002C0000201FB5002400
:1057D0000094019402942346802214A11548039456
:1057E00000F06AFB012803D100F0CAFD012809D0AE
:1057F000002819D1502080F31188BFF34F8FBFF3D9
:105800006F8FFEE7502080F31188BFF34F8FBFF3F7
:105810006F8F09484FF0FF31816201214161C460FF
:10582000BDE81F4000F056B81FBD000049444C457C
:10583000000000001D4800082C0000200248C16A3A
:10584000491CC162704700002C0000201448C16A46
:1058500011B10121C16170470021C1610169B1FA33
:1058600081F1C1F11F0101EB81020E4951F8223093
:105870006BB101EB820101F108034A6852684A608A
:105880009A4201D152684A60D16801607047502045
:1058900080F31188BFF34F8FBFF36F8FFEE70000D7
:1058A0002C0000207417002010B588B1D0F8001823
:1058B00071B191F800285AB1B1F80628B0F804087F
:1058C000824205D191F80108FDF71EFDC00700D006
:1058D000092010BD1CB532480168324A914207D1F7
:1058E000502080F31188BFF34F8FBFF36F8FFEE717
:1058F00000682C49491E884207D1502080F3118846
:10590000BFF34F8FBFF36F8FFEE7274908780190F1
:10591000FF20087008788DF800009DF800009DF8C1
:10592000002000F0F000904207D0502080F3118852
:10593000BFF34F8FBFF36F8FFEE79DF800001B4A48
:1059400000F0500010700720906005E09DF80030D6
:105950005B008DF80030401E9DF800301B06F5D42A
:10596000000200F4E0609060019808700C4820305C
:10597000016841F470010160016841F0704101600B
:10598000FFF7C6FD00205060FAF73AFC08480168AE
:1059900041F040410160FAF723FC00201CBD0000EB
:1059A00000ED00E071C20F4100E400E0740000204F
:1059B00034EF00E010B5502080F31188BFF34F8F13
:1059C000BFF36F8F00F06AFB18B104494FF08050AD
:1059D0000860002080F3118810BD000004ED00E095
:1059E0002DE9F04117460E46050017D0F6B105FB2C
:1059F00006F0401C5430FFF791F904001AD0BEB1F4
:105A000004F154002060C4E90F560121204600F043
:105A1000CFF884F850702046BDE8F081502080F324
:105A20001188BFF34F8FBFF36F8FFEE70020E1E7D0
:105A30002460E8E7502080F31188BFF34F8FBFF355
:105A40006F8FFEE72DE9FF47002582B09A46894611
:105A5000040003D0B9F1000F08D011E0502080F30A
:105A60001188BFF34F8FBFF36F8FFEE7206C38B103
:105A7000502080F31188BFF34F8FBFF36F8FFEE785
:105A800000F0F8FA494F4FF000084FF0805648B93F
:105A9000049838B1502080F31188BFF34F8FBFF3C3
:105AA0006F8FFEE7FFF7D2FCA06B60B3494620463C
:105AB000E568FEF743FEBAF1000F12D0E560606AB8
:105AC00048B104F1240000F09BFB20B13E60BFF31D
:105AD0004F8FBFF36F8FFFF7D9FC012006B0BDE8F1
